{
	"contracts/simpleStorage.sol": {
		"SimpleStorage": {
			"abi": [
				{
					"inputs": [
						{
							"internalType": "string",
							"name": "_name",
							"type": "string"
						},
						{
							"internalType": "uint256",
							"name": "_favoriteNum",
							"type": "uint256"
						}
					],
					"name": "addPerson",
					"outputs": [],
					"stateMutability": "nonpayable",
					"type": "function"
				},
				{
					"inputs": [],
					"name": "favoriteNum",
					"outputs": [
						{
							"internalType": "uint256",
							"name": "",
							"type": "uint256"
						}
					],
					"stateMutability": "view",
					"type": "function"
				},
				{
					"inputs": [
						{
							"internalType": "string",
							"name": "",
							"type": "string"
						}
					],
					"name": "nameToFavNum",
					"outputs": [
						{
							"internalType": "uint256",
							"name": "",
							"type": "uint256"
						}
					],
					"stateMutability": "view",
					"type": "function"
				},
				{
					"inputs": [
						{
							"internalType": "uint256",
							"name": "",
							"type": "uint256"
						}
					],
					"name": "people",
					"outputs": [
						{
							"internalType": "uint256",
							"name": "favoriteNum",
							"type": "uint256"
						},
						{
							"internalType": "string",
							"name": "name",
							"type": "string"
						}
					],
					"stateMutability": "view",
					"type": "function"
				},
				{
					"inputs": [],
					"name": "retrieve",
					"outputs": [
						{
							"internalType": "uint256",
							"name": "",
							"type": "uint256"
						}
					],
					"stateMutability": "view",
					"type": "function"
				},
				{
					"inputs": [
						{
							"internalType": "uint256",
							"name": "_favoriteNum",
							"type": "uint256"
						}
					],
					"name": "store",
					"outputs": [],
					"stateMutability": "nonpayable",
					"type": "function"
				}
			],
			"devdoc": {
				"kind": "dev",
				"methods": {},
				"version": 1
			},
			"evm": {
				"assembly": "    /* \"contracts/simpleStorage.sol\":81:1022  contract SimpleStorage {... */\n  mstore(0x40, 0x80)\n  callvalue\n  dup1\n  iszero\n  tag_1\n  jumpi\n  0x00\n  dup1\n  revert\ntag_1:\n  pop\n  dataSize(sub_0)\n  dup1\n  dataOffset(sub_0)\n  0x00\n  codecopy\n  0x00\n  return\nstop\n\nsub_0: assembly {\n        /* \"contracts/simpleStorage.sol\":81:1022  contract SimpleStorage {... */\n      mstore(0x40, 0x80)\n      callvalue\n      dup1\n      iszero\n      tag_1\n      jumpi\n      0x00\n      dup1\n      revert\n    tag_1:\n      pop\n      jumpi(tag_2, lt(calldatasize, 0x04))\n      shr(0xe0, calldataload(0x00))\n      dup1\n      0x06c62c2c\n      eq\n      tag_3\n      jumpi\n      dup1\n      0x2e64cec1\n      eq\n      tag_4\n      jumpi\n      dup1\n      0x6057361d\n      eq\n      tag_5\n      jumpi\n      dup1\n      0x6f760f41\n      eq\n      tag_6\n      jumpi\n      dup1\n      0x790418cc\n      eq\n      tag_7\n      jumpi\n      dup1\n      0x9e7a13ad\n      eq\n      tag_8\n      jumpi\n    tag_2:\n      0x00\n      dup1\n      revert\n        /* \"contracts/simpleStorage.sol\":227:273  mapping(string => uint256) public nameToFavNum */\n    tag_3:\n      tag_9\n      0x04\n      dup1\n      calldatasize\n      sub\n      dup2\n      add\n      swap1\n      tag_10\n      swap2\n      swap1\n      tag_11\n      jump\t// in\n    tag_10:\n      tag_12\n      jump\t// in\n    tag_9:\n      mload(0x40)\n      tag_13\n      swap2\n      swap1\n      tag_14\n      jump\t// in\n    tag_13:\n      mload(0x40)\n      dup1\n      swap2\n      sub\n      swap1\n      return\n        /* \"contracts/simpleStorage.sol\":569:789  function retrieve() public view returns(uint256){... */\n    tag_4:\n      tag_15\n      tag_16\n      jump\t// in\n    tag_15:\n      mload(0x40)\n      tag_17\n      swap2\n      swap1\n      tag_14\n      jump\t// in\n    tag_17:\n      mload(0x40)\n      dup1\n      swap2\n      sub\n      swap1\n      return\n        /* \"contracts/simpleStorage.sol\":405:563  function store(uint256 _favoriteNum) public virtual {... */\n    tag_5:\n      tag_18\n      0x04\n      dup1\n      calldatasize\n      sub\n      dup2\n      add\n      swap1\n      tag_19\n      swap2\n      swap1\n      tag_20\n      jump\t// in\n    tag_19:\n      tag_21\n      jump\t// in\n    tag_18:\n      stop\n        /* \"contracts/simpleStorage.sol\":794:1020  function addPerson(string memory _name, uint256 _favoriteNum) public {... */\n    tag_6:\n      tag_22\n      0x04\n      dup1\n      calldatasize\n      sub\n      dup2\n      add\n      swap1\n      tag_23\n      swap2\n      swap1\n      tag_24\n      jump\t// in\n    tag_23:\n      tag_25\n      jump\t// in\n    tag_22:\n      stop\n        /* \"contracts/simpleStorage.sol\":110:136  uint256 public favoriteNum */\n    tag_7:\n      tag_26\n      tag_27\n      jump\t// in\n    tag_26:\n      mload(0x40)\n      tag_28\n      swap2\n      swap1\n      tag_14\n      jump\t// in\n    tag_28:\n      mload(0x40)\n      dup1\n      swap2\n      sub\n      swap1\n      return\n        /* \"contracts/simpleStorage.sol\":375:397  People[] public people */\n    tag_8:\n      tag_29\n      0x04\n      dup1\n      calldatasize\n      sub\n      dup2\n      add\n      swap1\n      tag_30\n      swap2\n      swap1\n      tag_20\n      jump\t// in\n    tag_30:\n      tag_31\n      jump\t// in\n    tag_29:\n      mload(0x40)\n      tag_32\n      swap3\n      swap2\n      swap1\n      tag_33\n      jump\t// in\n    tag_32:\n      mload(0x40)\n      dup1\n      swap2\n      sub\n      swap1\n      return\n        /* \"contracts/simpleStorage.sol\":227:273  mapping(string => uint256) public nameToFavNum */\n    tag_12:\n      0x01\n      dup2\n      dup1\n      mload\n      0x20\n      dup2\n      add\n      dup3\n      add\n      dup1\n      mload\n      dup5\n      dup3\n      mstore\n      0x20\n      dup4\n      add\n      0x20\n      dup6\n      add\n      keccak256\n      dup2\n      dup4\n      mstore\n      dup1\n      swap6\n      pop\n      pop\n      pop\n      pop\n      pop\n      pop\n      0x00\n      swap2\n      pop\n      swap1\n      pop\n      sload\n      dup2\n      jump\t// out\n        /* \"contracts/simpleStorage.sol\":569:789  function retrieve() public view returns(uint256){... */\n    tag_16:\n        /* \"contracts/simpleStorage.sol\":609:616  uint256 */\n      0x00\n        /* \"contracts/simpleStorage.sol\":771:782  favoriteNum */\n      dup1\n      sload\n        /* \"contracts/simpleStorage.sol\":764:782  return favoriteNum */\n      swap1\n      pop\n        /* \"contracts/simpleStorage.sol\":569:789  function retrieve() public view returns(uint256){... */\n      swap1\n      jump\t// out\n        /* \"contracts/simpleStorage.sol\":405:563  function store(uint256 _favoriteNum) public virtual {... */\n    tag_21:\n        /* \"contracts/simpleStorage.sol\":544:556  _favoriteNum */\n      dup1\n        /* \"contracts/simpleStorage.sol\":530:541  favoriteNum */\n      0x00\n        /* \"contracts/simpleStorage.sol\":530:556  favoriteNum = _favoriteNum */\n      dup2\n      swap1\n      sstore\n      pop\n        /* \"contracts/simpleStorage.sol\":405:563  function store(uint256 _favoriteNum) public virtual {... */\n      pop\n      jump\t// out\n        /* \"contracts/simpleStorage.sol\":794:1020  function addPerson(string memory _name, uint256 _favoriteNum) public {... */\n    tag_25:\n        /* \"contracts/simpleStorage.sol\":873:879  people */\n      0x02\n        /* \"contracts/simpleStorage.sol\":885:912  People(_favoriteNum, _name) */\n      mload(0x40)\n      dup1\n      0x40\n      add\n      0x40\n      mstore\n      dup1\n        /* \"contracts/simpleStorage.sol\":892:904  _favoriteNum */\n      dup4\n        /* \"contracts/simpleStorage.sol\":885:912  People(_favoriteNum, _name) */\n      dup2\n      mstore\n      0x20\n      add\n        /* \"contracts/simpleStorage.sol\":906:911  _name */\n      dup5\n        /* \"contracts/simpleStorage.sol\":885:912  People(_favoriteNum, _name) */\n      dup2\n      mstore\n      pop\n        /* \"contracts/simpleStorage.sol\":873:913  people.push(People(_favoriteNum, _name)) */\n      swap1\n      dup1\n      0x01\n      dup2\n      sload\n      add\n      dup1\n      dup3\n      sstore\n      dup1\n      swap2\n      pop\n      pop\n      0x01\n      swap1\n      sub\n      swap1\n      0x00\n      mstore\n      keccak256(0x00, 0x20)\n      swap1\n      0x02\n      mul\n      add\n      0x00\n      swap1\n      swap2\n      swap1\n      swap2\n      swap1\n      swap2\n      pop\n      0x00\n      dup3\n      add\n      mload\n      dup2\n      0x00\n      add\n      sstore\n      0x20\n      dup3\n      add\n      mload\n      dup2\n      0x01\n      add\n      swap1\n      dup1\n      mload\n      swap1\n      0x20\n      add\n      swap1\n      tag_38\n      swap3\n      swap2\n      swap1\n      tag_39\n      jump\t// in\n    tag_38:\n      pop\n      pop\n      pop\n        /* \"contracts/simpleStorage.sol\":1001:1013  _favoriteNum */\n      dup1\n        /* \"contracts/simpleStorage.sol\":979:991  nameToFavNum */\n      0x01\n        /* \"contracts/simpleStorage.sol\":992:997  _name */\n      dup4\n        /* \"contracts/simpleStorage.sol\":979:998  nameToFavNum[_name] */\n      mload(0x40)\n      tag_40\n      swap2\n      swap1\n      tag_41\n      jump\t// in\n    tag_40:\n      swap1\n      dup2\n      mstore\n      0x20\n      add\n      mload(0x40)\n      dup1\n      swap2\n      sub\n      swap1\n      keccak256\n        /* \"contracts/simpleStorage.sol\":979:1013  nameToFavNum[_name] = _favoriteNum */\n      dup2\n      swap1\n      sstore\n      pop\n        /* \"contracts/simpleStorage.sol\":794:1020  function addPerson(string memory _name, uint256 _favoriteNum) public {... */\n      pop\n      pop\n      jump\t// out\n        /* \"contracts/simpleStorage.sol\":110:136  uint256 public favoriteNum */\n    tag_27:\n      sload(0x00)\n      dup2\n      jump\t// out\n        /* \"contracts/simpleStorage.sol\":375:397  People[] public people */\n    tag_31:\n      0x02\n      dup2\n      dup2\n      sload\n      dup2\n      lt\n      tag_42\n      jumpi\n      0x00\n      dup1\n      revert\n    tag_42:\n      swap1\n      0x00\n      mstore\n      keccak256(0x00, 0x20)\n      swap1\n      0x02\n      mul\n      add\n      0x00\n      swap2\n      pop\n      swap1\n      pop\n      dup1\n      0x00\n      add\n      sload\n      swap1\n      dup1\n      0x01\n      add\n      dup1\n      sload\n      tag_44\n      swap1\n      tag_45\n      jump\t// in\n    tag_44:\n      dup1\n      0x1f\n      add\n      0x20\n      dup1\n      swap2\n      div\n      mul\n      0x20\n      add\n      mload(0x40)\n      swap1\n      dup2\n      add\n      0x40\n      mstore\n      dup1\n      swap3\n      swap2\n      swap1\n      dup2\n      dup2\n      mstore\n      0x20\n      add\n      dup3\n      dup1\n      sload\n      tag_46\n      swap1\n      tag_45\n      jump\t// in\n    tag_46:\n      dup1\n      iszero\n      tag_47\n      jumpi\n      dup1\n      0x1f\n      lt\n      tag_48\n      jumpi\n      0x0100\n      dup1\n      dup4\n      sload\n      div\n      mul\n      dup4\n      mstore\n      swap2\n      0x20\n      add\n      swap2\n      jump(tag_47)\n    tag_48:\n      dup3\n      add\n      swap2\n      swap1\n      0x00\n      mstore\n      keccak256(0x00, 0x20)\n      swap1\n    tag_49:\n      dup2\n      sload\n      dup2\n      mstore\n      swap1\n      0x01\n      add\n      swap1\n      0x20\n      add\n      dup1\n      dup4\n      gt\n      tag_49\n      jumpi\n      dup3\n      swap1\n      sub\n      0x1f\n      and\n      dup3\n      add\n      swap2\n    tag_47:\n      pop\n      pop\n      pop\n      pop\n      pop\n      swap1\n      pop\n      dup3\n      jump\t// out\n    tag_39:\n      dup3\n      dup1\n      sload\n      tag_50\n      swap1\n      tag_45\n      jump\t// in\n    tag_50:\n      swap1\n      0x00\n      mstore\n      keccak256(0x00, 0x20)\n      swap1\n      0x1f\n      add\n      0x20\n      swap1\n      div\n      dup2\n      add\n      swap3\n      dup3\n      tag_52\n      jumpi\n      0x00\n      dup6\n      sstore\n      jump(tag_51)\n    tag_52:\n      dup3\n      0x1f\n      lt\n      tag_53\n      jumpi\n      dup1\n      mload\n      not(0xff)\n      and\n      dup4\n      dup1\n      add\n      or\n      dup6\n      sstore\n      jump(tag_51)\n    tag_53:\n      dup3\n      dup1\n      add\n      0x01\n      add\n      dup6\n      sstore\n      dup3\n      iszero\n      tag_51\n      jumpi\n      swap2\n      dup3\n      add\n    tag_54:\n      dup3\n      dup2\n      gt\n      iszero\n      tag_55\n      jumpi\n      dup3\n      mload\n      dup3\n      sstore\n      swap2\n      0x20\n      add\n      swap2\n      swap1\n      0x01\n      add\n      swap1\n      jump(tag_54)\n    tag_55:\n    tag_51:\n      pop\n      swap1\n      pop\n      tag_56\n      swap2\n      swap1\n      tag_57\n      jump\t// in\n    tag_56:\n      pop\n      swap1\n      jump\t// out\n    tag_57:\n    tag_58:\n      dup1\n      dup3\n      gt\n      iszero\n      tag_59\n      jumpi\n      0x00\n      dup2\n      0x00\n      swap1\n      sstore\n      pop\n      0x01\n      add\n      jump(tag_58)\n    tag_59:\n      pop\n      swap1\n      jump\t// out\n        /* \"#utility.yul\":7:82   */\n    tag_60:\n        /* \"#utility.yul\":40:46   */\n      0x00\n        /* \"#utility.yul\":73:75   */\n      0x40\n        /* \"#utility.yul\":67:76   */\n      mload\n        /* \"#utility.yul\":57:76   */\n      swap1\n      pop\n        /* \"#utility.yul\":7:82   */\n      swap1\n      jump\t// out\n        /* \"#utility.yul\":88:205   */\n    tag_61:\n        /* \"#utility.yul\":197:198   */\n      0x00\n        /* \"#utility.yul\":194:195   */\n      dup1\n        /* \"#utility.yul\":187:199   */\n      revert\n        /* \"#utility.yul\":211:328   */\n    tag_62:\n        /* \"#utility.yul\":320:321   */\n      0x00\n        /* \"#utility.yul\":317:318   */\n      dup1\n        /* \"#utility.yul\":310:322   */\n      revert\n        /* \"#utility.yul\":334:451   */\n    tag_63:\n        /* \"#utility.yul\":443:444   */\n      0x00\n        /* \"#utility.yul\":440:441   */\n      dup1\n        /* \"#utility.yul\":433:445   */\n      revert\n        /* \"#utility.yul\":457:574   */\n    tag_64:\n        /* \"#utility.yul\":566:567   */\n      0x00\n        /* \"#utility.yul\":563:564   */\n      dup1\n        /* \"#utility.yul\":556:568   */\n      revert\n        /* \"#utility.yul\":580:682   */\n    tag_65:\n        /* \"#utility.yul\":621:627   */\n      0x00\n        /* \"#utility.yul\":672:674   */\n      0x1f\n        /* \"#utility.yul\":668:675   */\n      not\n        /* \"#utility.yul\":663:665   */\n      0x1f\n        /* \"#utility.yul\":656:661   */\n      dup4\n        /* \"#utility.yul\":652:666   */\n      add\n        /* \"#utility.yul\":648:676   */\n      and\n        /* \"#utility.yul\":638:676   */\n      swap1\n      pop\n        /* \"#utility.yul\":580:682   */\n      swap2\n      swap1\n      pop\n      jump\t// out\n        /* \"#utility.yul\":688:868   */\n    tag_66:\n        /* \"#utility.yul\":736:813   */\n      0x4e487b7100000000000000000000000000000000000000000000000000000000\n        /* \"#utility.yul\":733:734   */\n      0x00\n        /* \"#utility.yul\":726:814   */\n      mstore\n        /* \"#utility.yul\":833:837   */\n      0x41\n        /* \"#utility.yul\":830:831   */\n      0x04\n        /* \"#utility.yul\":823:838   */\n      mstore\n        /* \"#utility.yul\":857:861   */\n      0x24\n        /* \"#utility.yul\":854:855   */\n      0x00\n        /* \"#utility.yul\":847:862   */\n      revert\n        /* \"#utility.yul\":874:1155   */\n    tag_67:\n        /* \"#utility.yul\":957:984   */\n      tag_93\n        /* \"#utility.yul\":979:983   */\n      dup3\n        /* \"#utility.yul\":957:984   */\n      tag_65\n      jump\t// in\n    tag_93:\n        /* \"#utility.yul\":949:955   */\n      dup2\n        /* \"#utility.yul\":945:985   */\n      add\n        /* \"#utility.yul\":1087:1093   */\n      dup2\n        /* \"#utility.yul\":1075:1085   */\n      dup2\n        /* \"#utility.yul\":1072:1094   */\n      lt\n        /* \"#utility.yul\":1051:1069   */\n      0xffffffffffffffff\n        /* \"#utility.yul\":1039:1049   */\n      dup3\n        /* \"#utility.yul\":1036:1070   */\n      gt\n        /* \"#utility.yul\":1033:1095   */\n      or\n        /* \"#utility.yul\":1030:1118   */\n      iszero\n      tag_94\n      jumpi\n        /* \"#utility.yul\":1098:1116   */\n      tag_95\n      tag_66\n      jump\t// in\n    tag_95:\n        /* \"#utility.yul\":1030:1118   */\n    tag_94:\n        /* \"#utility.yul\":1138:1148   */\n      dup1\n        /* \"#utility.yul\":1134:1136   */\n      0x40\n        /* \"#utility.yul\":1127:1149   */\n      mstore\n        /* \"#utility.yul\":917:1155   */\n      pop\n        /* \"#utility.yul\":874:1155   */\n      pop\n      pop\n      jump\t// out\n        /* \"#utility.yul\":1161:1290   */\n    tag_68:\n        /* \"#utility.yul\":1195:1201   */\n      0x00\n        /* \"#utility.yul\":1222:1242   */\n      tag_97\n      tag_60\n      jump\t// in\n    tag_97:\n        /* \"#utility.yul\":1212:1242   */\n      swap1\n      pop\n        /* \"#utility.yul\":1251:1284   */\n      tag_98\n        /* \"#utility.yul\":1279:1283   */\n      dup3\n        /* \"#utility.yul\":1271:1277   */\n      dup3\n        /* \"#utility.yul\":1251:1284   */\n      tag_67\n      jump\t// in\n    tag_98:\n        /* \"#utility.yul\":1161:1290   */\n      swap2\n      swap1\n      pop\n      jump\t// out\n        /* \"#utility.yul\":1296:1604   */\n    tag_69:\n        /* \"#utility.yul\":1358:1362   */\n      0x00\n        /* \"#utility.yul\":1448:1466   */\n      0xffffffffffffffff\n        /* \"#utility.yul\":1440:1446   */\n      dup3\n        /* \"#utility.yul\":1437:1467   */\n      gt\n        /* \"#utility.yul\":1434:1490   */\n      iszero\n      tag_100\n      jumpi\n        /* \"#utility.yul\":1470:1488   */\n      tag_101\n      tag_66\n      jump\t// in\n    tag_101:\n        /* \"#utility.yul\":1434:1490   */\n    tag_100:\n        /* \"#utility.yul\":1508:1537   */\n      tag_102\n        /* \"#utility.yul\":1530:1536   */\n      dup3\n        /* \"#utility.yul\":1508:1537   */\n      tag_65\n      jump\t// in\n    tag_102:\n        /* \"#utility.yul\":1500:1537   */\n      swap1\n      pop\n        /* \"#utility.yul\":1592:1596   */\n      0x20\n        /* \"#utility.yul\":1586:1590   */\n      dup2\n        /* \"#utility.yul\":1582:1597   */\n      add\n        /* \"#utility.yul\":1574:1597   */\n      swap1\n      pop\n        /* \"#utility.yul\":1296:1604   */\n      swap2\n      swap1\n      pop\n      jump\t// out\n        /* \"#utility.yul\":1610:1764   */\n    tag_70:\n        /* \"#utility.yul\":1694:1700   */\n      dup3\n        /* \"#utility.yul\":1689:1692   */\n      dup2\n        /* \"#utility.yul\":1684:1687   */\n      dup4\n        /* \"#utility.yul\":1671:1701   */\n      calldatacopy\n        /* \"#utility.yul\":1756:1757   */\n      0x00\n        /* \"#utility.yul\":1747:1753   */\n      dup4\n        /* \"#utility.yul\":1742:1745   */\n      dup4\n        /* \"#utility.yul\":1738:1754   */\n      add\n        /* \"#utility.yul\":1731:1758   */\n      mstore\n        /* \"#utility.yul\":1610:1764   */\n      pop\n      pop\n      pop\n      jump\t// out\n        /* \"#utility.yul\":1770:2182   */\n    tag_71:\n        /* \"#utility.yul\":1848:1853   */\n      0x00\n        /* \"#utility.yul\":1873:1939   */\n      tag_105\n        /* \"#utility.yul\":1889:1938   */\n      tag_106\n        /* \"#utility.yul\":1931:1937   */\n      dup5\n        /* \"#utility.yul\":1889:1938   */\n      tag_69\n      jump\t// in\n    tag_106:\n        /* \"#utility.yul\":1873:1939   */\n      tag_68\n      jump\t// in\n    tag_105:\n        /* \"#utility.yul\":1864:1939   */\n      swap1\n      pop\n        /* \"#utility.yul\":1962:1968   */\n      dup3\n        /* \"#utility.yul\":1955:1960   */\n      dup2\n        /* \"#utility.yul\":1948:1969   */\n      mstore\n        /* \"#utility.yul\":2000:2004   */\n      0x20\n        /* \"#utility.yul\":1993:1998   */\n      dup2\n        /* \"#utility.yul\":1989:2005   */\n      add\n        /* \"#utility.yul\":2038:2041   */\n      dup5\n        /* \"#utility.yul\":2029:2035   */\n      dup5\n        /* \"#utility.yul\":2024:2027   */\n      dup5\n        /* \"#utility.yul\":2020:2036   */\n      add\n        /* \"#utility.yul\":2017:2042   */\n      gt\n        /* \"#utility.yul\":2014:2126   */\n      iszero\n      tag_107\n      jumpi\n        /* \"#utility.yul\":2045:2124   */\n      tag_108\n      tag_64\n      jump\t// in\n    tag_108:\n        /* \"#utility.yul\":2014:2126   */\n    tag_107:\n        /* \"#utility.yul\":2135:2176   */\n      tag_109\n        /* \"#utility.yul\":2169:2175   */\n      dup5\n        /* \"#utility.yul\":2164:2167   */\n      dup3\n        /* \"#utility.yul\":2159:2162   */\n      dup6\n        /* \"#utility.yul\":2135:2176   */\n      tag_70\n      jump\t// in\n    tag_109:\n        /* \"#utility.yul\":1854:2182   */\n      pop\n        /* \"#utility.yul\":1770:2182   */\n      swap4\n      swap3\n      pop\n      pop\n      pop\n      jump\t// out\n        /* \"#utility.yul\":2202:2542   */\n    tag_72:\n        /* \"#utility.yul\":2258:2263   */\n      0x00\n        /* \"#utility.yul\":2307:2310   */\n      dup3\n        /* \"#utility.yul\":2300:2304   */\n      0x1f\n        /* \"#utility.yul\":2292:2298   */\n      dup4\n        /* \"#utility.yul\":2288:2305   */\n      add\n        /* \"#utility.yul\":2284:2311   */\n      slt\n        /* \"#utility.yul\":2274:2396   */\n      tag_111\n      jumpi\n        /* \"#utility.yul\":2315:2394   */\n      tag_112\n      tag_63\n      jump\t// in\n    tag_112:\n        /* \"#utility.yul\":2274:2396   */\n    tag_111:\n        /* \"#utility.yul\":2432:2438   */\n      dup2\n        /* \"#utility.yul\":2419:2439   */\n      calldataload\n        /* \"#utility.yul\":2457:2536   */\n      tag_113\n        /* \"#utility.yul\":2532:2535   */\n      dup5\n        /* \"#utility.yul\":2524:2530   */\n      dup3\n        /* \"#utility.yul\":2517:2521   */\n      0x20\n        /* \"#utility.yul\":2509:2515   */\n      dup7\n        /* \"#utility.yul\":2505:2522   */\n      add\n        /* \"#utility.yul\":2457:2536   */\n      tag_71\n      jump\t// in\n    tag_113:\n        /* \"#utility.yul\":2448:2536   */\n      swap2\n      pop\n        /* \"#utility.yul\":2264:2542   */\n      pop\n        /* \"#utility.yul\":2202:2542   */\n      swap3\n      swap2\n      pop\n      pop\n      jump\t// out\n        /* \"#utility.yul\":2548:3057   */\n    tag_11:\n        /* \"#utility.yul\":2617:2623   */\n      0x00\n        /* \"#utility.yul\":2666:2668   */\n      0x20\n        /* \"#utility.yul\":2654:2663   */\n      dup3\n        /* \"#utility.yul\":2645:2652   */\n      dup5\n        /* \"#utility.yul\":2641:2664   */\n      sub\n        /* \"#utility.yul\":2637:2669   */\n      slt\n        /* \"#utility.yul\":2634:2753   */\n      iszero\n      tag_115\n      jumpi\n        /* \"#utility.yul\":2672:2751   */\n      tag_116\n      tag_61\n      jump\t// in\n    tag_116:\n        /* \"#utility.yul\":2634:2753   */\n    tag_115:\n        /* \"#utility.yul\":2820:2821   */\n      0x00\n        /* \"#utility.yul\":2809:2818   */\n      dup3\n        /* \"#utility.yul\":2805:2822   */\n      add\n        /* \"#utility.yul\":2792:2823   */\n      calldataload\n        /* \"#utility.yul\":2850:2868   */\n      0xffffffffffffffff\n        /* \"#utility.yul\":2842:2848   */\n      dup2\n        /* \"#utility.yul\":2839:2869   */\n      gt\n        /* \"#utility.yul\":2836:2953   */\n      iszero\n      tag_117\n      jumpi\n        /* \"#utility.yul\":2872:2951   */\n      tag_118\n      tag_62\n      jump\t// in\n    tag_118:\n        /* \"#utility.yul\":2836:2953   */\n    tag_117:\n        /* \"#utility.yul\":2977:3040   */\n      tag_119\n        /* \"#utility.yul\":3032:3039   */\n      dup5\n        /* \"#utility.yul\":3023:3029   */\n      dup3\n        /* \"#utility.yul\":3012:3021   */\n      dup6\n        /* \"#utility.yul\":3008:3030   */\n      add\n        /* \"#utility.yul\":2977:3040   */\n      tag_72\n      jump\t// in\n    tag_119:\n        /* \"#utility.yul\":2967:3040   */\n      swap2\n      pop\n        /* \"#utility.yul\":2763:3050   */\n      pop\n        /* \"#utility.yul\":2548:3057   */\n      swap3\n      swap2\n      pop\n      pop\n      jump\t// out\n        /* \"#utility.yul\":3063:3140   */\n    tag_73:\n        /* \"#utility.yul\":3100:3107   */\n      0x00\n        /* \"#utility.yul\":3129:3134   */\n      dup2\n        /* \"#utility.yul\":3118:3134   */\n      swap1\n      pop\n        /* \"#utility.yul\":3063:3140   */\n      swap2\n      swap1\n      pop\n      jump\t// out\n        /* \"#utility.yul\":3146:3264   */\n    tag_74:\n        /* \"#utility.yul\":3233:3257   */\n      tag_122\n        /* \"#utility.yul\":3251:3256   */\n      dup2\n        /* \"#utility.yul\":3233:3257   */\n      tag_73\n      jump\t// in\n    tag_122:\n        /* \"#utility.yul\":3228:3231   */\n      dup3\n        /* \"#utility.yul\":3221:3258   */\n      mstore\n        /* \"#utility.yul\":3146:3264   */\n      pop\n      pop\n      jump\t// out\n        /* \"#utility.yul\":3270:3492   */\n    tag_14:\n        /* \"#utility.yul\":3363:3367   */\n      0x00\n        /* \"#utility.yul\":3401:3403   */\n      0x20\n        /* \"#utility.yul\":3390:3399   */\n      dup3\n        /* \"#utility.yul\":3386:3404   */\n      add\n        /* \"#utility.yul\":3378:3404   */\n      swap1\n      pop\n        /* \"#utility.yul\":3414:3485   */\n      tag_124\n        /* \"#utility.yul\":3482:3483   */\n      0x00\n        /* \"#utility.yul\":3471:3480   */\n      dup4\n        /* \"#utility.yul\":3467:3484   */\n      add\n        /* \"#utility.yul\":3458:3464   */\n      dup5\n        /* \"#utility.yul\":3414:3485   */\n      tag_74\n      jump\t// in\n    tag_124:\n        /* \"#utility.yul\":3270:3492   */\n      swap3\n      swap2\n      pop\n      pop\n      jump\t// out\n        /* \"#utility.yul\":3498:3620   */\n    tag_75:\n        /* \"#utility.yul\":3571:3595   */\n      tag_126\n        /* \"#utility.yul\":3589:3594   */\n      dup2\n        /* \"#utility.yul\":3571:3595   */\n      tag_73\n      jump\t// in\n    tag_126:\n        /* \"#utility.yul\":3564:3569   */\n      dup2\n        /* \"#utility.yul\":3561:3596   */\n      eq\n        /* \"#utility.yul\":3551:3614   */\n      tag_127\n      jumpi\n        /* \"#utility.yul\":3610:3611   */\n      0x00\n        /* \"#utility.yul\":3607:3608   */\n      dup1\n        /* \"#utility.yul\":3600:3612   */\n      revert\n        /* \"#utility.yul\":3551:3614   */\n    tag_127:\n        /* \"#utility.yul\":3498:3620   */\n      pop\n      jump\t// out\n        /* \"#utility.yul\":3626:3765   */\n    tag_76:\n        /* \"#utility.yul\":3672:3677   */\n      0x00\n        /* \"#utility.yul\":3710:3716   */\n      dup2\n        /* \"#utility.yul\":3697:3717   */\n      calldataload\n        /* \"#utility.yul\":3688:3717   */\n      swap1\n      pop\n        /* \"#utility.yul\":3726:3759   */\n      tag_129\n        /* \"#utility.yul\":3753:3758   */\n      dup2\n        /* \"#utility.yul\":3726:3759   */\n      tag_75\n      jump\t// in\n    tag_129:\n        /* \"#utility.yul\":3626:3765   */\n      swap3\n      swap2\n      pop\n      pop\n      jump\t// out\n        /* \"#utility.yul\":3771:4100   */\n    tag_20:\n        /* \"#utility.yul\":3830:3836   */\n      0x00\n        /* \"#utility.yul\":3879:3881   */\n      0x20\n        /* \"#utility.yul\":3867:3876   */\n      dup3\n        /* \"#utility.yul\":3858:3865   */\n      dup5\n        /* \"#utility.yul\":3854:3877   */\n      sub\n        /* \"#utility.yul\":3850:3882   */\n      slt\n        /* \"#utility.yul\":3847:3966   */\n      iszero\n      tag_131\n      jumpi\n        /* \"#utility.yul\":3885:3964   */\n      tag_132\n      tag_61\n      jump\t// in\n    tag_132:\n        /* \"#utility.yul\":3847:3966   */\n    tag_131:\n        /* \"#utility.yul\":4005:4006   */\n      0x00\n        /* \"#utility.yul\":4030:4083   */\n      tag_133\n        /* \"#utility.yul\":4075:4082   */\n      dup5\n        /* \"#utility.yul\":4066:4072   */\n      dup3\n        /* \"#utility.yul\":4055:4064   */\n      dup6\n        /* \"#utility.yul\":4051:4073   */\n      add\n        /* \"#utility.yul\":4030:4083   */\n      tag_76\n      jump\t// in\n    tag_133:\n        /* \"#utility.yul\":4020:4083   */\n      swap2\n      pop\n        /* \"#utility.yul\":3976:4093   */\n      pop\n        /* \"#utility.yul\":3771:4100   */\n      swap3\n      swap2\n      pop\n      pop\n      jump\t// out\n        /* \"#utility.yul\":4106:4760   */\n    tag_24:\n        /* \"#utility.yul\":4184:4190   */\n      0x00\n        /* \"#utility.yul\":4192:4198   */\n      dup1\n        /* \"#utility.yul\":4241:4243   */\n      0x40\n        /* \"#utility.yul\":4229:4238   */\n      dup4\n        /* \"#utility.yul\":4220:4227   */\n      dup6\n        /* \"#utility.yul\":4216:4239   */\n      sub\n        /* \"#utility.yul\":4212:4244   */\n      slt\n        /* \"#utility.yul\":4209:4328   */\n      iszero\n      tag_135\n      jumpi\n        /* \"#utility.yul\":4247:4326   */\n      tag_136\n      tag_61\n      jump\t// in\n    tag_136:\n        /* \"#utility.yul\":4209:4328   */\n    tag_135:\n        /* \"#utility.yul\":4395:4396   */\n      0x00\n        /* \"#utility.yul\":4384:4393   */\n      dup4\n        /* \"#utility.yul\":4380:4397   */\n      add\n        /* \"#utility.yul\":4367:4398   */\n      calldataload\n        /* \"#utility.yul\":4425:4443   */\n      0xffffffffffffffff\n        /* \"#utility.yul\":4417:4423   */\n      dup2\n        /* \"#utility.yul\":4414:4444   */\n      gt\n        /* \"#utility.yul\":4411:4528   */\n      iszero\n      tag_137\n      jumpi\n        /* \"#utility.yul\":4447:4526   */\n      tag_138\n      tag_62\n      jump\t// in\n    tag_138:\n        /* \"#utility.yul\":4411:4528   */\n    tag_137:\n        /* \"#utility.yul\":4552:4615   */\n      tag_139\n        /* \"#utility.yul\":4607:4614   */\n      dup6\n        /* \"#utility.yul\":4598:4604   */\n      dup3\n        /* \"#utility.yul\":4587:4596   */\n      dup7\n        /* \"#utility.yul\":4583:4605   */\n      add\n        /* \"#utility.yul\":4552:4615   */\n      tag_72\n      jump\t// in\n    tag_139:\n        /* \"#utility.yul\":4542:4615   */\n      swap3\n      pop\n        /* \"#utility.yul\":4338:4625   */\n      pop\n        /* \"#utility.yul\":4664:4666   */\n      0x20\n        /* \"#utility.yul\":4690:4743   */\n      tag_140\n        /* \"#utility.yul\":4735:4742   */\n      dup6\n        /* \"#utility.yul\":4726:4732   */\n      dup3\n        /* \"#utility.yul\":4715:4724   */\n      dup7\n        /* \"#utility.yul\":4711:4733   */\n      add\n        /* \"#utility.yul\":4690:4743   */\n      tag_76\n      jump\t// in\n    tag_140:\n        /* \"#utility.yul\":4680:4743   */\n      swap2\n      pop\n        /* \"#utility.yul\":4635:4753   */\n      pop\n        /* \"#utility.yul\":4106:4760   */\n      swap3\n      pop\n      swap3\n      swap1\n      pop\n      jump\t// out\n        /* \"#utility.yul\":4766:4865   */\n    tag_77:\n        /* \"#utility.yul\":4818:4824   */\n      0x00\n        /* \"#utility.yul\":4852:4857   */\n      dup2\n        /* \"#utility.yul\":4846:4858   */\n      mload\n        /* \"#utility.yul\":4836:4858   */\n      swap1\n      pop\n        /* \"#utility.yul\":4766:4865   */\n      swap2\n      swap1\n      pop\n      jump\t// out\n        /* \"#utility.yul\":4871:5040   */\n    tag_78:\n        /* \"#utility.yul\":4955:4966   */\n      0x00\n        /* \"#utility.yul\":4989:4995   */\n      dup3\n        /* \"#utility.yul\":4984:4987   */\n      dup3\n        /* \"#utility.yul\":4977:4996   */\n      mstore\n        /* \"#utility.yul\":5029:5033   */\n      0x20\n        /* \"#utility.yul\":5024:5027   */\n      dup3\n        /* \"#utility.yul\":5020:5034   */\n      add\n        /* \"#utility.yul\":5005:5034   */\n      swap1\n      pop\n        /* \"#utility.yul\":4871:5040   */\n      swap3\n      swap2\n      pop\n      pop\n      jump\t// out\n        /* \"#utility.yul\":5046:5353   */\n    tag_79:\n        /* \"#utility.yul\":5114:5115   */\n      0x00\n        /* \"#utility.yul\":5124:5237   */\n    tag_144:\n        /* \"#utility.yul\":5138:5144   */\n      dup4\n        /* \"#utility.yul\":5135:5136   */\n      dup2\n        /* \"#utility.yul\":5132:5145   */\n      lt\n        /* \"#utility.yul\":5124:5237   */\n      iszero\n      tag_146\n      jumpi\n        /* \"#utility.yul\":5223:5224   */\n      dup1\n        /* \"#utility.yul\":5218:5221   */\n      dup3\n        /* \"#utility.yul\":5214:5225   */\n      add\n        /* \"#utility.yul\":5208:5226   */\n      mload\n        /* \"#utility.yul\":5204:5205   */\n      dup2\n        /* \"#utility.yul\":5199:5202   */\n      dup5\n        /* \"#utility.yul\":5195:5206   */\n      add\n        /* \"#utility.yul\":5188:5227   */\n      mstore\n        /* \"#utility.yul\":5160:5162   */\n      0x20\n        /* \"#utility.yul\":5157:5158   */\n      dup2\n        /* \"#utility.yul\":5153:5163   */\n      add\n        /* \"#utility.yul\":5148:5163   */\n      swap1\n      pop\n        /* \"#utility.yul\":5124:5237   */\n      jump(tag_144)\n    tag_146:\n        /* \"#utility.yul\":5255:5261   */\n      dup4\n        /* \"#utility.yul\":5252:5253   */\n      dup2\n        /* \"#utility.yul\":5249:5262   */\n      gt\n        /* \"#utility.yul\":5246:5347   */\n      iszero\n      tag_147\n      jumpi\n        /* \"#utility.yul\":5335:5336   */\n      0x00\n        /* \"#utility.yul\":5326:5332   */\n      dup5\n        /* \"#utility.yul\":5321:5324   */\n      dup5\n        /* \"#utility.yul\":5317:5333   */\n      add\n        /* \"#utility.yul\":5310:5337   */\n      mstore\n        /* \"#utility.yul\":5246:5347   */\n    tag_147:\n        /* \"#utility.yul\":5095:5353   */\n      pop\n        /* \"#utility.yul\":5046:5353   */\n      pop\n      pop\n      pop\n      jump\t// out\n        /* \"#utility.yul\":5359:5723   */\n    tag_80:\n        /* \"#utility.yul\":5447:5450   */\n      0x00\n        /* \"#utility.yul\":5475:5514   */\n      tag_149\n        /* \"#utility.yul\":5508:5513   */\n      dup3\n        /* \"#utility.yul\":5475:5514   */\n      tag_77\n      jump\t// in\n    tag_149:\n        /* \"#utility.yul\":5530:5601   */\n      tag_150\n        /* \"#utility.yul\":5594:5600   */\n      dup2\n        /* \"#utility.yul\":5589:5592   */\n      dup6\n        /* \"#utility.yul\":5530:5601   */\n      tag_78\n      jump\t// in\n    tag_150:\n        /* \"#utility.yul\":5523:5601   */\n      swap4\n      pop\n        /* \"#utility.yul\":5610:5662   */\n      tag_151\n        /* \"#utility.yul\":5655:5661   */\n      dup2\n        /* \"#utility.yul\":5650:5653   */\n      dup6\n        /* \"#utility.yul\":5643:5647   */\n      0x20\n        /* \"#utility.yul\":5636:5641   */\n      dup7\n        /* \"#utility.yul\":5632:5648   */\n      add\n        /* \"#utility.yul\":5610:5662   */\n      tag_79\n      jump\t// in\n    tag_151:\n        /* \"#utility.yul\":5687:5716   */\n      tag_152\n        /* \"#utility.yul\":5709:5715   */\n      dup2\n        /* \"#utility.yul\":5687:5716   */\n      tag_65\n      jump\t// in\n    tag_152:\n        /* \"#utility.yul\":5682:5685   */\n      dup5\n        /* \"#utility.yul\":5678:5717   */\n      add\n        /* \"#utility.yul\":5671:5717   */\n      swap2\n      pop\n        /* \"#utility.yul\":5451:5723   */\n      pop\n        /* \"#utility.yul\":5359:5723   */\n      swap3\n      swap2\n      pop\n      pop\n      jump\t// out\n        /* \"#utility.yul\":5729:6152   */\n    tag_33:\n        /* \"#utility.yul\":5870:5874   */\n      0x00\n        /* \"#utility.yul\":5908:5910   */\n      0x40\n        /* \"#utility.yul\":5897:5906   */\n      dup3\n        /* \"#utility.yul\":5893:5911   */\n      add\n        /* \"#utility.yul\":5885:5911   */\n      swap1\n      pop\n        /* \"#utility.yul\":5921:5992   */\n      tag_154\n        /* \"#utility.yul\":5989:5990   */\n      0x00\n        /* \"#utility.yul\":5978:5987   */\n      dup4\n        /* \"#utility.yul\":5974:5991   */\n      add\n        /* \"#utility.yul\":5965:5971   */\n      dup6\n        /* \"#utility.yul\":5921:5992   */\n      tag_74\n      jump\t// in\n    tag_154:\n        /* \"#utility.yul\":6039:6048   */\n      dup2\n        /* \"#utility.yul\":6033:6037   */\n      dup2\n        /* \"#utility.yul\":6029:6049   */\n      sub\n        /* \"#utility.yul\":6024:6026   */\n      0x20\n        /* \"#utility.yul\":6013:6022   */\n      dup4\n        /* \"#utility.yul\":6009:6027   */\n      add\n        /* \"#utility.yul\":6002:6050   */\n      mstore\n        /* \"#utility.yul\":6067:6145   */\n      tag_155\n        /* \"#utility.yul\":6140:6144   */\n      dup2\n        /* \"#utility.yul\":6131:6137   */\n      dup5\n        /* \"#utility.yul\":6067:6145   */\n      tag_80\n      jump\t// in\n    tag_155:\n        /* \"#utility.yul\":6059:6145   */\n      swap1\n      pop\n        /* \"#utility.yul\":5729:6152   */\n      swap4\n      swap3\n      pop\n      pop\n      pop\n      jump\t// out\n        /* \"#utility.yul\":6158:6306   */\n    tag_81:\n        /* \"#utility.yul\":6260:6271   */\n      0x00\n        /* \"#utility.yul\":6297:6300   */\n      dup2\n        /* \"#utility.yul\":6282:6300   */\n      swap1\n      pop\n        /* \"#utility.yul\":6158:6306   */\n      swap3\n      swap2\n      pop\n      pop\n      jump\t// out\n        /* \"#utility.yul\":6312:6689   */\n    tag_82:\n        /* \"#utility.yul\":6418:6421   */\n      0x00\n        /* \"#utility.yul\":6446:6485   */\n      tag_158\n        /* \"#utility.yul\":6479:6484   */\n      dup3\n        /* \"#utility.yul\":6446:6485   */\n      tag_77\n      jump\t// in\n    tag_158:\n        /* \"#utility.yul\":6501:6590   */\n      tag_159\n        /* \"#utility.yul\":6583:6589   */\n      dup2\n        /* \"#utility.yul\":6578:6581   */\n      dup6\n        /* \"#utility.yul\":6501:6590   */\n      tag_81\n      jump\t// in\n    tag_159:\n        /* \"#utility.yul\":6494:6590   */\n      swap4\n      pop\n        /* \"#utility.yul\":6599:6651   */\n      tag_160\n        /* \"#utility.yul\":6644:6650   */\n      dup2\n        /* \"#utility.yul\":6639:6642   */\n      dup6\n        /* \"#utility.yul\":6632:6636   */\n      0x20\n        /* \"#utility.yul\":6625:6630   */\n      dup7\n        /* \"#utility.yul\":6621:6637   */\n      add\n        /* \"#utility.yul\":6599:6651   */\n      tag_79\n      jump\t// in\n    tag_160:\n        /* \"#utility.yul\":6676:6682   */\n      dup1\n        /* \"#utility.yul\":6671:6674   */\n      dup5\n        /* \"#utility.yul\":6667:6683   */\n      add\n        /* \"#utility.yul\":6660:6683   */\n      swap2\n      pop\n        /* \"#utility.yul\":6422:6689   */\n      pop\n        /* \"#utility.yul\":6312:6689   */\n      swap3\n      swap2\n      pop\n      pop\n      jump\t// out\n        /* \"#utility.yul\":6695:6970   */\n    tag_41:\n        /* \"#utility.yul\":6827:6830   */\n      0x00\n        /* \"#utility.yul\":6849:6944   */\n      tag_162\n        /* \"#utility.yul\":6940:6943   */\n      dup3\n        /* \"#utility.yul\":6931:6937   */\n      dup5\n        /* \"#utility.yul\":6849:6944   */\n      tag_82\n      jump\t// in\n    tag_162:\n        /* \"#utility.yul\":6842:6944   */\n      swap2\n      pop\n        /* \"#utility.yul\":6961:6964   */\n      dup2\n        /* \"#utility.yul\":6954:6964   */\n      swap1\n      pop\n        /* \"#utility.yul\":6695:6970   */\n      swap3\n      swap2\n      pop\n      pop\n      jump\t// out\n        /* \"#utility.yul\":6976:7156   */\n    tag_83:\n        /* \"#utility.yul\":7024:7101   */\n      0x4e487b7100000000000000000000000000000000000000000000000000000000\n        /* \"#utility.yul\":7021:7022   */\n      0x00\n        /* \"#utility.yul\":7014:7102   */\n      mstore\n        /* \"#utility.yul\":7121:7125   */\n      0x22\n        /* \"#utility.yul\":7118:7119   */\n      0x04\n        /* \"#utility.yul\":7111:7126   */\n      mstore\n        /* \"#utility.yul\":7145:7149   */\n      0x24\n        /* \"#utility.yul\":7142:7143   */\n      0x00\n        /* \"#utility.yul\":7135:7150   */\n      revert\n        /* \"#utility.yul\":7162:7482   */\n    tag_45:\n        /* \"#utility.yul\":7206:7212   */\n      0x00\n        /* \"#utility.yul\":7243:7244   */\n      0x02\n        /* \"#utility.yul\":7237:7241   */\n      dup3\n        /* \"#utility.yul\":7233:7245   */\n      div\n        /* \"#utility.yul\":7223:7245   */\n      swap1\n      pop\n        /* \"#utility.yul\":7290:7291   */\n      0x01\n        /* \"#utility.yul\":7284:7288   */\n      dup3\n        /* \"#utility.yul\":7280:7292   */\n      and\n        /* \"#utility.yul\":7311:7329   */\n      dup1\n        /* \"#utility.yul\":7301:7382   */\n      tag_165\n      jumpi\n        /* \"#utility.yul\":7367:7371   */\n      0x7f\n        /* \"#utility.yul\":7359:7365   */\n      dup3\n        /* \"#utility.yul\":7355:7372   */\n      and\n        /* \"#utility.yul\":7345:7372   */\n      swap2\n      pop\n        /* \"#utility.yul\":7301:7382   */\n    tag_165:\n        /* \"#utility.yul\":7429:7431   */\n      0x20\n        /* \"#utility.yul\":7421:7427   */\n      dup3\n        /* \"#utility.yul\":7418:7432   */\n      lt\n        /* \"#utility.yul\":7398:7416   */\n      dup2\n        /* \"#utility.yul\":7395:7433   */\n      eq\n        /* \"#utility.yul\":7392:7476   */\n      iszero\n      tag_166\n      jumpi\n        /* \"#utility.yul\":7448:7466   */\n      tag_167\n      tag_83\n      jump\t// in\n    tag_167:\n        /* \"#utility.yul\":7392:7476   */\n    tag_166:\n        /* \"#utility.yul\":7213:7482   */\n      pop\n        /* \"#utility.yul\":7162:7482   */\n      swap2\n      swap1\n      pop\n      jump\t// out\n\n    auxdata: 0xa264697066735822122053946f2efce93e25ef494de846df759db484c0e15e49f978440ff1d9dca8fb8b64736f6c63430008080033\n}\n",
				"bytecode": {
					"linkReferences": {},
					"object": "608060405234801561001057600080fd5b506107a0806100206000396000f3fe608060405234801561001057600080fd5b50600436106100625760003560e01c806306c62c2c146100675780632e64cec1146100975780636057361d146100b55780636f760f41146100d1578063790418cc146100ed5780639e7a13ad1461010b575b600080fd5b610081600480360381019061007c91906104cc565b61013c565b60405161008e919061052e565b60405180910390f35b61009f61016a565b6040516100ac919061052e565b60405180910390f35b6100cf60048036038101906100ca9190610575565b610173565b005b6100eb60048036038101906100e691906105a2565b61017d565b005b6100f561020d565b604051610102919061052e565b60405180910390f35b61012560048036038101906101209190610575565b610213565b604051610133929190610686565b60405180910390f35b6001818051602081018201805184825260208301602085012081835280955050505050506000915090505481565b60008054905090565b8060008190555050565b600260405180604001604052808381526020018481525090806001815401808255809150506001900390600052602060002090600202016000909190919091506000820151816000015560208201518160010190805190602001906101e39291906102cf565b505050806001836040516101f791906106f2565b9081526020016040518091039020819055505050565b60005481565b6002818154811061022357600080fd5b906000526020600020906002020160009150905080600001549080600101805461024c90610738565b80601f016020809104026020016040519081016040528092919081815260200182805461027890610738565b80156102c55780601f1061029a576101008083540402835291602001916102c5565b820191906000526020600020905b8154815290600101906020018083116102a857829003601f168201915b5050505050905082565b8280546102db90610738565b90600052602060002090601f0160209004810192826102fd5760008555610344565b82601f1061031657805160ff1916838001178555610344565b82800160010185558215610344579182015b82811115610343578251825591602001919060010190610328565b5b5090506103519190610355565b5090565b5b8082111561036e576000816000905550600101610356565b5090565b6000604051905090565b600080fd5b600080fd5b600080fd5b600080fd5b6000601f19601f8301169050919050565b7f4e487b7100000000000000000000000000000000000000000000000000000000600052604160045260246000fd5b6103d982610390565b810181811067ffffffffffffffff821117156103f8576103f76103a1565b5b80604052505050565b600061040b610372565b905061041782826103d0565b919050565b600067ffffffffffffffff821115610437576104366103a1565b5b61044082610390565b9050602081019050919050565b82818337600083830152505050565b600061046f61046a8461041c565b610401565b90508281526020810184848401111561048b5761048a61038b565b5b61049684828561044d565b509392505050565b600082601f8301126104b3576104b2610386565b5b81356104c384826020860161045c565b91505092915050565b6000602082840312156104e2576104e161037c565b5b600082013567ffffffffffffffff811115610500576104ff610381565b5b61050c8482850161049e565b91505092915050565b6000819050919050565b61052881610515565b82525050565b6000602082019050610543600083018461051f565b92915050565b61055281610515565b811461055d57600080fd5b50565b60008135905061056f81610549565b92915050565b60006020828403121561058b5761058a61037c565b5b600061059984828501610560565b91505092915050565b600080604083850312156105b9576105b861037c565b5b600083013567ffffffffffffffff8111156105d7576105d6610381565b5b6105e38582860161049e565b92505060206105f485828601610560565b9150509250929050565b600081519050919050565b600082825260208201905092915050565b60005b8381101561063857808201518184015260208101905061061d565b83811115610647576000848401525b50505050565b6000610658826105fe565b6106628185610609565b935061067281856020860161061a565b61067b81610390565b840191505092915050565b600060408201905061069b600083018561051f565b81810360208301526106ad818461064d565b90509392505050565b600081905092915050565b60006106cc826105fe565b6106d681856106b6565b93506106e681856020860161061a565b80840191505092915050565b60006106fe82846106c1565b915081905092915050565b7f4e487b7100000000000000000000000000000000000000000000000000000000600052602260045260246000fd5b6000600282049050600182168061075057607f821691505b6020821081141561076457610763610709565b5b5091905056fea264697066735822122053946f2efce93e25ef494de846df759db484c0e15e49f978440ff1d9dca8fb8b64736f6c63430008080033",
					"opcodes": "PUSH1 0x80 PUSH1 0x40 MSTORE CALLVALUE DUP1 ISZERO PUSH2 0x10 JUMPI PUSH1 0x0 DUP1 REVERT JUMPDEST POP PUSH2 0x7A0 DUP1 PUSH2 0x20 PUSH1 0x0 CODECOPY PUSH1 0x0 RETURN INVALID PUSH1 0x80 PUSH1 0x40 MSTORE CALLVALUE DUP1 ISZERO PUSH2 0x10 JUMPI PUSH1 0x0 DUP1 REVERT JUMPDEST POP PUSH1 0x4 CALLDATASIZE LT PUSH2 0x62 JUMPI PUSH1 0x0 CALLDATALOAD PUSH1 0xE0 SHR DUP1 PUSH4 0x6C62C2C EQ PUSH2 0x67 JUMPI DUP1 PUSH4 0x2E64CEC1 EQ PUSH2 0x97 JUMPI DUP1 PUSH4 0x6057361D EQ PUSH2 0xB5 JUMPI DUP1 PUSH4 0x6F760F41 EQ PUSH2 0xD1 JUMPI DUP1 PUSH4 0x790418CC EQ PUSH2 0xED JUMPI DUP1 PUSH4 0x9E7A13AD EQ PUSH2 0x10B JUMPI JUMPDEST PUSH1 0x0 DUP1 REVERT JUMPDEST PUSH2 0x81 PUSH1 0x4 DUP1 CALLDATASIZE SUB DUP2 ADD SWAP1 PUSH2 0x7C SWAP2 SWAP1 PUSH2 0x4CC JUMP JUMPDEST PUSH2 0x13C JUMP JUMPDEST PUSH1 0x40 MLOAD PUSH2 0x8E SWAP2 SWAP1 PUSH2 0x52E JUMP JUMPDEST PUSH1 0x40 MLOAD DUP1 SWAP2 SUB SWAP1 RETURN JUMPDEST PUSH2 0x9F PUSH2 0x16A JUMP JUMPDEST PUSH1 0x40 MLOAD PUSH2 0xAC SWAP2 SWAP1 PUSH2 0x52E JUMP JUMPDEST PUSH1 0x40 MLOAD DUP1 SWAP2 SUB SWAP1 RETURN JUMPDEST PUSH2 0xCF PUSH1 0x4 DUP1 CALLDATASIZE SUB DUP2 ADD SWAP1 PUSH2 0xCA SWAP2 SWAP1 PUSH2 0x575 JUMP JUMPDEST PUSH2 0x173 JUMP JUMPDEST STOP JUMPDEST PUSH2 0xEB PUSH1 0x4 DUP1 CALLDATASIZE SUB DUP2 ADD SWAP1 PUSH2 0xE6 SWAP2 SWAP1 PUSH2 0x5A2 JUMP JUMPDEST PUSH2 0x17D JUMP JUMPDEST STOP JUMPDEST PUSH2 0xF5 PUSH2 0x20D JUMP JUMPDEST PUSH1 0x40 MLOAD PUSH2 0x102 SWAP2 SWAP1 PUSH2 0x52E JUMP JUMPDEST PUSH1 0x40 MLOAD DUP1 SWAP2 SUB SWAP1 RETURN JUMPDEST PUSH2 0x125 PUSH1 0x4 DUP1 CALLDATASIZE SUB DUP2 ADD SWAP1 PUSH2 0x120 SWAP2 SWAP1 PUSH2 0x575 JUMP JUMPDEST PUSH2 0x213 JUMP JUMPDEST PUSH1 0x40 MLOAD PUSH2 0x133 SWAP3 SWAP2 SWAP1 PUSH2 0x686 JUMP JUMPDEST PUSH1 0x40 MLOAD DUP1 SWAP2 SUB SWAP1 RETURN JUMPDEST PUSH1 0x1 DUP2 DUP1 MLOAD PUSH1 0x20 DUP2 ADD DUP3 ADD DUP1 MLOAD DUP5 DUP3 MSTORE PUSH1 0x20 DUP4 ADD PUSH1 0x20 DUP6 ADD KECCAK256 DUP2 DUP4 MSTORE DUP1 SWAP6 POP POP POP POP POP POP PUSH1 0x0 SWAP2 POP SWAP1 POP SLOAD DUP2 JUMP JUMPDEST PUSH1 0x0 DUP1 SLOAD SWAP1 POP SWAP1 JUMP JUMPDEST DUP1 PUSH1 0x0 DUP2 SWAP1 SSTORE POP POP JUMP JUMPDEST PUSH1 0x2 PUSH1 0x40 MLOAD DUP1 PUSH1 0x40 ADD PUSH1 0x40 MSTORE DUP1 DUP4 DUP2 MSTORE PUSH1 0x20 ADD DUP5 DUP2 MSTORE POP SWAP1 DUP1 PUSH1 0x1 DUP2 SLOAD ADD DUP1 DUP3 SSTORE DUP1 SWAP2 POP POP PUSH1 0x1 SWAP1 SUB SWAP1 PUSH1 0x0 MSTORE PUSH1 0x20 PUSH1 0x0 KECCAK256 SWAP1 PUSH1 0x2 MUL ADD PUSH1 0x0 SWAP1 SWAP2 SWAP1 SWAP2 SWAP1 SWAP2 POP PUSH1 0x0 DUP3 ADD MLOAD DUP2 PUSH1 0x0 ADD SSTORE PUSH1 0x20 DUP3 ADD MLOAD DUP2 PUSH1 0x1 ADD SWAP1 DUP1 MLOAD SWAP1 PUSH1 0x20 ADD SWAP1 PUSH2 0x1E3 SWAP3 SWAP2 SWAP1 PUSH2 0x2CF JUMP JUMPDEST POP POP POP DUP1 PUSH1 0x1 DUP4 PUSH1 0x40 MLOAD PUSH2 0x1F7 SWAP2 SWAP1 PUSH2 0x6F2 JUMP JUMPDEST SWAP1 DUP2 MSTORE PUSH1 0x20 ADD PUSH1 0x40 MLOAD DUP1 SWAP2 SUB SWAP1 KECCAK256 DUP2 SWAP1 SSTORE POP POP POP JUMP JUMPDEST PUSH1 0x0 SLOAD DUP2 JUMP JUMPDEST PUSH1 0x2 DUP2 DUP2 SLOAD DUP2 LT PUSH2 0x223 JUMPI PUSH1 0x0 DUP1 REVERT JUMPDEST SWAP1 PUSH1 0x0 MSTORE PUSH1 0x20 PUSH1 0x0 KECCAK256 SWAP1 PUSH1 0x2 MUL ADD PUSH1 0x0 SWAP2 POP SWAP1 POP DUP1 PUSH1 0x0 ADD SLOAD SWAP1 DUP1 PUSH1 0x1 ADD DUP1 SLOAD PUSH2 0x24C SWAP1 PUSH2 0x738 JUMP JUMPDEST DUP1 PUSH1 0x1F ADD PUSH1 0x20 DUP1 SWAP2 DIV MUL PUSH1 0x20 ADD PUSH1 0x40 MLOAD SWAP1 DUP2 ADD PUSH1 0x40 MSTORE DUP1 SWAP3 SWAP2 SWAP1 DUP2 DUP2 MSTORE PUSH1 0x20 ADD DUP3 DUP1 SLOAD PUSH2 0x278 SWAP1 PUSH2 0x738 JUMP JUMPDEST DUP1 ISZERO PUSH2 0x2C5 JUMPI DUP1 PUSH1 0x1F LT PUSH2 0x29A JUMPI PUSH2 0x100 DUP1 DUP4 SLOAD DIV MUL DUP4 MSTORE SWAP2 PUSH1 0x20 ADD SWAP2 PUSH2 0x2C5 JUMP JUMPDEST DUP3 ADD SWAP2 SWAP1 PUSH1 0x0 MSTORE PUSH1 0x20 PUSH1 0x0 KECCAK256 SWAP1 JUMPDEST DUP2 SLOAD DUP2 MSTORE SWAP1 PUSH1 0x1 ADD SWAP1 PUSH1 0x20 ADD DUP1 DUP4 GT PUSH2 0x2A8 JUMPI DUP3 SWAP1 SUB PUSH1 0x1F AND DUP3 ADD SWAP2 JUMPDEST POP POP POP POP POP SWAP1 POP DUP3 JUMP JUMPDEST DUP3 DUP1 SLOAD PUSH2 0x2DB SWAP1 PUSH2 0x738 JUMP JUMPDEST SWAP1 PUSH1 0x0 MSTORE PUSH1 0x20 PUSH1 0x0 KECCAK256 SWAP1 PUSH1 0x1F ADD PUSH1 0x20 SWAP1 DIV DUP2 ADD SWAP3 DUP3 PUSH2 0x2FD JUMPI PUSH1 0x0 DUP6 SSTORE PUSH2 0x344 JUMP JUMPDEST DUP3 PUSH1 0x1F LT PUSH2 0x316 JUMPI DUP1 MLOAD PUSH1 0xFF NOT AND DUP4 DUP1 ADD OR DUP6 SSTORE PUSH2 0x344 JUMP JUMPDEST DUP3 DUP1 ADD PUSH1 0x1 ADD DUP6 SSTORE DUP3 ISZERO PUSH2 0x344 JUMPI SWAP2 DUP3 ADD JUMPDEST DUP3 DUP2 GT ISZERO PUSH2 0x343 JUMPI DUP3 MLOAD DUP3 SSTORE SWAP2 PUSH1 0x20 ADD SWAP2 SWAP1 PUSH1 0x1 ADD SWAP1 PUSH2 0x328 JUMP JUMPDEST JUMPDEST POP SWAP1 POP PUSH2 0x351 SWAP2 SWAP1 PUSH2 0x355 JUMP JUMPDEST POP SWAP1 JUMP JUMPDEST JUMPDEST DUP1 DUP3 GT ISZERO PUSH2 0x36E JUMPI PUSH1 0x0 DUP2 PUSH1 0x0 SWAP1 SSTORE POP PUSH1 0x1 ADD PUSH2 0x356 JUMP JUMPDEST POP SWAP1 JUMP JUMPDEST PUSH1 0x0 PUSH1 0x40 MLOAD SWAP1 POP SWAP1 JUMP JUMPDEST PUSH1 0x0 DUP1 REVERT JUMPDEST PUSH1 0x0 DUP1 REVERT JUMPDEST PUSH1 0x0 DUP1 REVERT JUMPDEST PUSH1 0x0 DUP1 REVERT JUMPDEST PUSH1 0x0 PUSH1 0x1F NOT PUSH1 0x1F DUP4 ADD AND SWAP1 POP SWAP2 SWAP1 POP JUMP JUMPDEST PUSH32 0x4E487B7100000000000000000000000000000000000000000000000000000000 PUSH1 0x0 MSTORE PUSH1 0x41 PUSH1 0x4 MSTORE PUSH1 0x24 PUSH1 0x0 REVERT JUMPDEST PUSH2 0x3D9 DUP3 PUSH2 0x390 JUMP JUMPDEST DUP2 ADD DUP2 DUP2 LT PUSH8 0xFFFFFFFFFFFFFFFF DUP3 GT OR ISZERO PUSH2 0x3F8 JUMPI PUSH2 0x3F7 PUSH2 0x3A1 JUMP JUMPDEST JUMPDEST DUP1 PUSH1 0x40 MSTORE POP POP POP JUMP JUMPDEST PUSH1 0x0 PUSH2 0x40B PUSH2 0x372 JUMP JUMPDEST SWAP1 POP PUSH2 0x417 DUP3 DUP3 PUSH2 0x3D0 JUMP JUMPDEST SWAP2 SWAP1 POP JUMP JUMPDEST PUSH1 0x0 PUSH8 0xFFFFFFFFFFFFFFFF DUP3 GT ISZERO PUSH2 0x437 JUMPI PUSH2 0x436 PUSH2 0x3A1 JUMP JUMPDEST JUMPDEST PUSH2 0x440 DUP3 PUSH2 0x390 JUMP JUMPDEST SWAP1 POP PUSH1 0x20 DUP2 ADD SWAP1 POP SWAP2 SWAP1 POP JUMP JUMPDEST DUP3 DUP2 DUP4 CALLDATACOPY PUSH1 0x0 DUP4 DUP4 ADD MSTORE POP POP POP JUMP JUMPDEST PUSH1 0x0 PUSH2 0x46F PUSH2 0x46A DUP5 PUSH2 0x41C JUMP JUMPDEST PUSH2 0x401 JUMP JUMPDEST SWAP1 POP DUP3 DUP2 MSTORE PUSH1 0x20 DUP2 ADD DUP5 DUP5 DUP5 ADD GT ISZERO PUSH2 0x48B JUMPI PUSH2 0x48A PUSH2 0x38B JUMP JUMPDEST JUMPDEST PUSH2 0x496 DUP5 DUP3 DUP6 PUSH2 0x44D JUMP JUMPDEST POP SWAP4 SWAP3 POP POP POP JUMP JUMPDEST PUSH1 0x0 DUP3 PUSH1 0x1F DUP4 ADD SLT PUSH2 0x4B3 JUMPI PUSH2 0x4B2 PUSH2 0x386 JUMP JUMPDEST JUMPDEST DUP2 CALLDATALOAD PUSH2 0x4C3 DUP5 DUP3 PUSH1 0x20 DUP7 ADD PUSH2 0x45C JUMP JUMPDEST SWAP2 POP POP SWAP3 SWAP2 POP POP JUMP JUMPDEST PUSH1 0x0 PUSH1 0x20 DUP3 DUP5 SUB SLT ISZERO PUSH2 0x4E2 JUMPI PUSH2 0x4E1 PUSH2 0x37C JUMP JUMPDEST JUMPDEST PUSH1 0x0 DUP3 ADD CALLDATALOAD PUSH8 0xFFFFFFFFFFFFFFFF DUP2 GT ISZERO PUSH2 0x500 JUMPI PUSH2 0x4FF PUSH2 0x381 JUMP JUMPDEST JUMPDEST PUSH2 0x50C DUP5 DUP3 DUP6 ADD PUSH2 0x49E JUMP JUMPDEST SWAP2 POP POP SWAP3 SWAP2 POP POP JUMP JUMPDEST PUSH1 0x0 DUP2 SWAP1 POP SWAP2 SWAP1 POP JUMP JUMPDEST PUSH2 0x528 DUP2 PUSH2 0x515 JUMP JUMPDEST DUP3 MSTORE POP POP JUMP JUMPDEST PUSH1 0x0 PUSH1 0x20 DUP3 ADD SWAP1 POP PUSH2 0x543 PUSH1 0x0 DUP4 ADD DUP5 PUSH2 0x51F JUMP JUMPDEST SWAP3 SWAP2 POP POP JUMP JUMPDEST PUSH2 0x552 DUP2 PUSH2 0x515 JUMP JUMPDEST DUP2 EQ PUSH2 0x55D JUMPI PUSH1 0x0 DUP1 REVERT JUMPDEST POP JUMP JUMPDEST PUSH1 0x0 DUP2 CALLDATALOAD SWAP1 POP PUSH2 0x56F DUP2 PUSH2 0x549 JUMP JUMPDEST SWAP3 SWAP2 POP POP JUMP JUMPDEST PUSH1 0x0 PUSH1 0x20 DUP3 DUP5 SUB SLT ISZERO PUSH2 0x58B JUMPI PUSH2 0x58A PUSH2 0x37C JUMP JUMPDEST JUMPDEST PUSH1 0x0 PUSH2 0x599 DUP5 DUP3 DUP6 ADD PUSH2 0x560 JUMP JUMPDEST SWAP2 POP POP SWAP3 SWAP2 POP POP JUMP JUMPDEST PUSH1 0x0 DUP1 PUSH1 0x40 DUP4 DUP6 SUB SLT ISZERO PUSH2 0x5B9 JUMPI PUSH2 0x5B8 PUSH2 0x37C JUMP JUMPDEST JUMPDEST PUSH1 0x0 DUP4 ADD CALLDATALOAD PUSH8 0xFFFFFFFFFFFFFFFF DUP2 GT ISZERO PUSH2 0x5D7 JUMPI PUSH2 0x5D6 PUSH2 0x381 JUMP JUMPDEST JUMPDEST PUSH2 0x5E3 DUP6 DUP3 DUP7 ADD PUSH2 0x49E JUMP JUMPDEST SWAP3 POP POP PUSH1 0x20 PUSH2 0x5F4 DUP6 DUP3 DUP7 ADD PUSH2 0x560 JUMP JUMPDEST SWAP2 POP POP SWAP3 POP SWAP3 SWAP1 POP JUMP JUMPDEST PUSH1 0x0 DUP2 MLOAD SWAP1 POP SWAP2 SWAP1 POP JUMP JUMPDEST PUSH1 0x0 DUP3 DUP3 MSTORE PUSH1 0x20 DUP3 ADD SWAP1 POP SWAP3 SWAP2 POP POP JUMP JUMPDEST PUSH1 0x0 JUMPDEST DUP4 DUP2 LT ISZERO PUSH2 0x638 JUMPI DUP1 DUP3 ADD MLOAD DUP2 DUP5 ADD MSTORE PUSH1 0x20 DUP2 ADD SWAP1 POP PUSH2 0x61D JUMP JUMPDEST DUP4 DUP2 GT ISZERO PUSH2 0x647 JUMPI PUSH1 0x0 DUP5 DUP5 ADD MSTORE JUMPDEST POP POP POP POP JUMP JUMPDEST PUSH1 0x0 PUSH2 0x658 DUP3 PUSH2 0x5FE JUMP JUMPDEST PUSH2 0x662 DUP2 DUP6 PUSH2 0x609 JUMP JUMPDEST SWAP4 POP PUSH2 0x672 DUP2 DUP6 PUSH1 0x20 DUP7 ADD PUSH2 0x61A JUMP JUMPDEST PUSH2 0x67B DUP2 PUSH2 0x390 JUMP JUMPDEST DUP5 ADD SWAP2 POP POP SWAP3 SWAP2 POP POP JUMP JUMPDEST PUSH1 0x0 PUSH1 0x40 DUP3 ADD SWAP1 POP PUSH2 0x69B PUSH1 0x0 DUP4 ADD DUP6 PUSH2 0x51F JUMP JUMPDEST DUP2 DUP2 SUB PUSH1 0x20 DUP4 ADD MSTORE PUSH2 0x6AD DUP2 DUP5 PUSH2 0x64D JUMP JUMPDEST SWAP1 POP SWAP4 SWAP3 POP POP POP JUMP JUMPDEST PUSH1 0x0 DUP2 SWAP1 POP SWAP3 SWAP2 POP POP JUMP JUMPDEST PUSH1 0x0 PUSH2 0x6CC DUP3 PUSH2 0x5FE JUMP JUMPDEST PUSH2 0x6D6 DUP2 DUP6 PUSH2 0x6B6 JUMP JUMPDEST SWAP4 POP PUSH2 0x6E6 DUP2 DUP6 PUSH1 0x20 DUP7 ADD PUSH2 0x61A JUMP JUMPDEST DUP1 DUP5 ADD SWAP2 POP POP SWAP3 SWAP2 POP POP JUMP JUMPDEST PUSH1 0x0 PUSH2 0x6FE DUP3 DUP5 PUSH2 0x6C1 JUMP JUMPDEST SWAP2 POP DUP2 SWAP1 POP SWAP3 SWAP2 POP POP JUMP JUMPDEST PUSH32 0x4E487B7100000000000000000000000000000000000000000000000000000000 PUSH1 0x0 MSTORE PUSH1 0x22 PUSH1 0x4 MSTORE PUSH1 0x24 PUSH1 0x0 REVERT JUMPDEST PUSH1 0x0 PUSH1 0x2 DUP3 DIV SWAP1 POP PUSH1 0x1 DUP3 AND DUP1 PUSH2 0x750 JUMPI PUSH1 0x7F DUP3 AND SWAP2 POP JUMPDEST PUSH1 0x20 DUP3 LT DUP2 EQ ISZERO PUSH2 0x764 JUMPI PUSH2 0x763 PUSH2 0x709 JUMP JUMPDEST JUMPDEST POP SWAP2 SWAP1 POP JUMP INVALID LOG2 PUSH5 0x6970667358 0x22 SLT KECCAK256 MSTORE8 SWAP5 PUSH16 0x2EFCE93E25EF494DE846DF759DB484C0 0xE1 0x5E 0x49 0xF9 PUSH25 0x440FF1D9DCA8FB8B64736F6C63430008080033000000000000 "
				},
				"gasEstimates": {
					"creation": {
						"codeDepositCost": "390400",
						"executionCost": "424",
						"totalCost": "390824"
					},
					"external": {
						"addPerson(string,uint256)": "infinite",
						"favoriteNum()": "2495",
						"nameToFavNum(string)": "infinite",
						"people(uint256)": "infinite",
						"retrieve()": "2437",
						"store(uint256)": "22542"
					}
				},
				"methodIdentifiers": {
					"addPerson(string,uint256)": "6f760f41",
					"favoriteNum()": "790418cc",
					"nameToFavNum(string)": "06c62c2c",
					"people(uint256)": "9e7a13ad",
					"retrieve()": "2e64cec1",
					"store(uint256)": "6057361d"
				}
			},
			"storageLayout": {
				"storage": [
					{
						"astId": 22,
						"contract": "contracts/simpleStorage.sol:SimpleStorage",
						"label": "favoriteNum",
						"offset": 0,
						"slot": "0",
						"type": "t_uint256"
					},
					{
						"astId": 26,
						"contract": "contracts/simpleStorage.sol:SimpleStorage",
						"label": "nameToFavNum",
						"offset": 0,
						"slot": "1",
						"type": "t_mapping(t_string_memory_ptr,t_uint256)"
					},
					{
						"astId": 35,
						"contract": "contracts/simpleStorage.sol:SimpleStorage",
						"label": "people",
						"offset": 0,
						"slot": "2",
						"type": "t_array(t_struct(People)31_storage)dyn_storage"
					}
				],
				"types": {
					"t_array(t_struct(People)31_storage)dyn_storage": {
						"base": "t_struct(People)31_storage",
						"encoding": "dynamic_array",
						"label": "struct SimpleStorage.People[]",
						"numberOfBytes": "32"
					},
					"t_mapping(t_string_memory_ptr,t_uint256)": {
						"encoding": "mapping",
						"key": "t_string_memory_ptr",
						"label": "mapping(string => uint256)",
						"numberOfBytes": "32",
						"value": "t_uint256"
					},
					"t_string_memory_ptr": {
						"encoding": "bytes",
						"label": "string",
						"numberOfBytes": "32"
					},
					"t_string_storage": {
						"encoding": "bytes",
						"label": "string",
						"numberOfBytes": "32"
					},
					"t_struct(People)31_storage": {
						"encoding": "inplace",
						"label": "struct SimpleStorage.People",
						"members": [
							{
								"astId": 28,
								"contract": "contracts/simpleStorage.sol:SimpleStorage",
								"label": "favoriteNum",
								"offset": 0,
								"slot": "0",
								"type": "t_uint256"
							},
							{
								"astId": 30,
								"contract": "contracts/simpleStorage.sol:SimpleStorage",
								"label": "name",
								"offset": 0,
								"slot": "1",
								"type": "t_string_storage"
							}
						],
						"numberOfBytes": "64"
					},
					"t_uint256": {
						"encoding": "inplace",
						"label": "uint256",
						"numberOfBytes": "32"
					}
				}
			},
			"userdoc": {
				"kind": "user",
				"methods": {},
				"version": 1
			}
		}
	}
}